{"abi":[{"type":"constructor","inputs":[{"name":"target","type":"address","internalType":"address"}],"stateMutability":"payable"},{"type":"function","name":"win","inputs":[],"outputs":[],"stateMutability":"nonpayable"}],"bytecode":{"object":"0x60a0604052604051610311380380610311833981810160405281019061002591906100bd565b8073ffffffffffffffffffffffffffffffffffffffff1660808173ffffffffffffffffffffffffffffffffffffffff1681525050506100e8565b5f5ffd5b5f73ffffffffffffffffffffffffffffffffffffffff82169050919050565b5f61008c82610063565b9050919050565b61009c81610082565b81146100a6575f5ffd5b50565b5f815190506100b781610093565b92915050565b5f602082840312156100d2576100d161005f565b5b5f6100df848285016100a9565b91505092915050565b60805161020c6101055f395f8181603901526075015261020c5ff3fe608060405234801561000f575f5ffd5b5060043610610029575f3560e01c8063473ca96c1461002d575b5f5ffd5b610035610037565b005b7f000000000000000000000000000000000000000000000000000000000000000073ffffffffffffffffffffffffffffffffffffffff166364dd891a7f000000000000000000000000000000000000000000000000000000000000000073ffffffffffffffffffffffffffffffffffffffff1663d21d2cd16040518163ffffffff1660e01b81526004016020604051808303815f875af11580156100dd573d5f5f3e3d5ffd5b505050506040513d601f19601f820116820180604052508101906101019190610183565b6040518263ffffffff1660e01b815260040161011d91906101bd565b5f604051808303815f87803b158015610134575f5ffd5b505af1158015610146573d5f5f3e3d5ffd5b50505050565b5f5ffd5b5f819050919050565b61016281610150565b811461016c575f5ffd5b50565b5f8151905061017d81610159565b92915050565b5f602082840312156101985761019761014c565b5b5f6101a58482850161016f565b91505092915050565b6101b781610150565b82525050565b5f6020820190506101d05f8301846101ae565b9291505056fea26469706673582212209713e1007d689a83fbe933ce830ad8e519d2be88c753ad858d64fc62aafd2e1f64736f6c634300081e0033","linkReferences":{}},"methodIdentifiers":{"win()":"473ca96c"},"id":16}